{
  "contractName": "CourseMarketplace",
  "abi": [
    {
      "inputs": [],
      "stateMutability": "nonpayable",
      "type": "constructor"
    },
    {
      "inputs": [],
      "name": "CourseHasOwner",
      "type": "error"
    },
    {
      "inputs": [],
      "name": "CourseIsNotCreated",
      "type": "error"
    },
    {
      "inputs": [],
      "name": "InvalidState",
      "type": "error"
    },
    {
      "inputs": [],
      "name": "OnlyOwner",
      "type": "error"
    },
    {
      "inputs": [],
      "name": "SenderIsNoCourseOwner",
      "type": "error"
    },
    {
      "inputs": [],
      "name": "isStopped",
      "outputs": [
        {
          "internalType": "bool",
          "name": "",
          "type": "bool"
        }
      ],
      "stateMutability": "view",
      "type": "function",
      "constant": true
    },
    {
      "stateMutability": "payable",
      "type": "receive",
      "payable": true
    },
    {
      "inputs": [
        {
          "internalType": "uint256",
          "name": "amount",
          "type": "uint256"
        }
      ],
      "name": "withdraw",
      "outputs": [],
      "stateMutability": "nonpayable",
      "type": "function"
    },
    {
      "inputs": [],
      "name": "emergencyWithdraw",
      "outputs": [],
      "stateMutability": "nonpayable",
      "type": "function"
    },
    {
      "inputs": [],
      "name": "selfDestruct",
      "outputs": [],
      "stateMutability": "nonpayable",
      "type": "function"
    },
    {
      "inputs": [],
      "name": "stopContract",
      "outputs": [],
      "stateMutability": "nonpayable",
      "type": "function"
    },
    {
      "inputs": [],
      "name": "resumeContract",
      "outputs": [],
      "stateMutability": "nonpayable",
      "type": "function"
    },
    {
      "inputs": [
        {
          "internalType": "bytes32",
          "name": "courseHash",
          "type": "bytes32"
        }
      ],
      "name": "repurchaseCourse",
      "outputs": [],
      "stateMutability": "payable",
      "type": "function",
      "payable": true
    },
    {
      "inputs": [
        {
          "internalType": "bytes32",
          "name": "courseHash",
          "type": "bytes32"
        }
      ],
      "name": "activateCourse",
      "outputs": [],
      "stateMutability": "nonpayable",
      "type": "function"
    },
    {
      "inputs": [
        {
          "internalType": "bytes32",
          "name": "courseHash",
          "type": "bytes32"
        }
      ],
      "name": "deactivateCourse",
      "outputs": [],
      "stateMutability": "nonpayable",
      "type": "function"
    },
    {
      "inputs": [
        {
          "internalType": "address",
          "name": "newOwner",
          "type": "address"
        }
      ],
      "name": "transferOwnership",
      "outputs": [],
      "stateMutability": "nonpayable",
      "type": "function"
    },
    {
      "inputs": [
        {
          "internalType": "bytes16",
          "name": "courseId",
          "type": "bytes16"
        },
        {
          "internalType": "bytes32",
          "name": "proof",
          "type": "bytes32"
        }
      ],
      "name": "purchaseCourse",
      "outputs": [],
      "stateMutability": "payable",
      "type": "function",
      "payable": true
    },
    {
      "inputs": [],
      "name": "getCourseCount",
      "outputs": [
        {
          "internalType": "uint256",
          "name": "",
          "type": "uint256"
        }
      ],
      "stateMutability": "view",
      "type": "function",
      "constant": true
    },
    {
      "inputs": [
        {
          "internalType": "uint256",
          "name": "index",
          "type": "uint256"
        }
      ],
      "name": "getCourseHashAtIndex",
      "outputs": [
        {
          "internalType": "bytes32",
          "name": "",
          "type": "bytes32"
        }
      ],
      "stateMutability": "view",
      "type": "function",
      "constant": true
    },
    {
      "inputs": [
        {
          "internalType": "bytes32",
          "name": "courseHash",
          "type": "bytes32"
        }
      ],
      "name": "getCourseByHash",
      "outputs": [
        {
          "components": [
            {
              "internalType": "uint256",
              "name": "id",
              "type": "uint256"
            },
            {
              "internalType": "uint256",
              "name": "price",
              "type": "uint256"
            },
            {
              "internalType": "bytes32",
              "name": "proof",
              "type": "bytes32"
            },
            {
              "internalType": "address",
              "name": "owner",
              "type": "address"
            },
            {
              "internalType": "enum CourseMarketplace.State",
              "name": "state",
              "type": "uint8"
            }
          ],
          "internalType": "struct CourseMarketplace.Course",
          "name": "",
          "type": "tuple"
        }
      ],
      "stateMutability": "view",
      "type": "function",
      "constant": true
    },
    {
      "inputs": [],
      "name": "getContractOwner",
      "outputs": [
        {
          "internalType": "address",
          "name": "",
          "type": "address"
        }
      ],
      "stateMutability": "view",
      "type": "function",
      "constant": true
    }
  ],
  "bytecode": "0x608060405260008060006101000a81548160ff02191690831515021790555034801561002a57600080fd5b5061003a3361003f60201b60201c565b610083565b80600460006101000a81548173ffffffffffffffffffffffffffffffffffffffff021916908373ffffffffffffffffffffffffffffffffffffffff16021790555050565b611c19806100926000396000f3fe6080604052600436106100ec5760003560e01c80636d11290b1161008a578063c4bc5da511610059578063c4bc5da5146102b8578063d76821cb146102cf578063db2e21bc146102eb578063f2fde38b14610302576100f3565b80636d11290b14610210578063935d7e6d1461024d57806396cfda06146102765780639cb8a26a146102a1576100f3565b80633f683b6a116100c65780633f683b6a14610161578063442890d51461018c5780636136e1eb146101b757806362e4e6ac146101d3576100f3565b806312253a6c146100f85780632e1a7d4d1461010f5780633926257214610138576100f3565b366100f357005b600080fd5b34801561010457600080fd5b5061010d61032b565b005b34801561011b57600080fd5b50610136600480360381019061013191906115d7565b6103b3565b005b34801561014457600080fd5b5061015f600480360381019061015a91906115ae565b6104f1565b005b34801561016d57600080fd5b50610176610713565b6040516101839190611819565b60405180910390f35b34801561019857600080fd5b506101a1610724565b6040516101ae91906117fe565b60405180910390f35b6101d160048036038101906101cc91906115ae565b61074e565b005b3480156101df57600080fd5b506101fa60048036038101906101f591906115ae565b61094b565b60405161020791906118cf565b60405180910390f35b34801561021c57600080fd5b50610237600480360381019061023291906115d7565b610a73565b6040516102449190611834565b60405180910390f35b34801561025957600080fd5b50610274600480360381019061026f91906115ae565b610a90565b005b34801561028257600080fd5b5061028b610d91565b60405161029891906118ea565b60405180910390f35b3480156102ad57600080fd5b506102b6610d9b565b005b3480156102c457600080fd5b506102cd610e8f565b005b6102e960048036038101906102e49190611572565b610f17565b005b3480156102f757600080fd5b50610300611152565b005b34801561030e57600080fd5b5061032960048036038101906103249190611549565b6112dc565b005b610333610724565b73ffffffffffffffffffffffffffffffffffffffff163373ffffffffffffffffffffffffffffffffffffffff1614610397576040517f5fc483c500000000000000000000000000000000000000000000000000000000815260040160405180910390fd5b60016000806101000a81548160ff021916908315150217905550565b6103bb610724565b73ffffffffffffffffffffffffffffffffffffffff163373ffffffffffffffffffffffffffffffffffffffff161461041f576040517f5fc483c500000000000000000000000000000000000000000000000000000000815260040160405180910390fd5b6000600460009054906101000a900473ffffffffffffffffffffffffffffffffffffffff1673ffffffffffffffffffffffffffffffffffffffff1682604051610467906117e9565b60006040518083038185875af1925050503d80600081146104a4576040519150601f19603f3d011682016040523d82523d6000602084013e6104a9565b606091505b50509050806104ed576040517f08c379a00000000000000000000000000000000000000000000000000000000081526004016104e49061186f565b60405180910390fd5b5050565b60008054906101000a900460ff161561053f576040517f08c379a00000000000000000000000000000000000000000000000000000000081526004016105369061188f565b60405180910390fd5b610547610724565b73ffffffffffffffffffffffffffffffffffffffff163373ffffffffffffffffffffffffffffffffffffffff16146105ab576040517f5fc483c500000000000000000000000000000000000000000000000000000000815260040160405180910390fd5b6105b481611354565b6105ea576040517f4db0c48300000000000000000000000000000000000000000000000000000000815260040160405180910390fd5b60006001600083815260200190815260200160002090506000600281111561063b577f4e487b7100000000000000000000000000000000000000000000000000000000600052602160045260246000fd5b8160030160149054906101000a900460ff166002811115610685577f4e487b7100000000000000000000000000000000000000000000000000000000600052602160045260246000fd5b146106bc576040517fbaf3f0f700000000000000000000000000000000000000000000000000000000815260040160405180910390fd5b60018160030160146101000a81548160ff0219169083600281111561070a577f4e487b7100000000000000000000000000000000000000000000000000000000600052602160045260246000fd5b02179055505050565b60008054906101000a900460ff1681565b6000600460009054906101000a900473ffffffffffffffffffffffffffffffffffffffff16905090565b60008054906101000a900460ff161561079c576040517f08c379a00000000000000000000000000000000000000000000000000000000081526004016107939061188f565b60405180910390fd5b6107a581611354565b6107db576040517f4db0c48300000000000000000000000000000000000000000000000000000000815260040160405180910390fd5b6107e4816113c3565b61081a576040517fdb4387cc00000000000000000000000000000000000000000000000000000000815260040160405180910390fd5b600060016000838152602001908152602001600020905060028081111561086a577f4e487b7100000000000000000000000000000000000000000000000000000000600052602160045260246000fd5b8160030160149054906101000a900460ff1660028111156108b4577f4e487b7100000000000000000000000000000000000000000000000000000000600052602160045260246000fd5b146108eb576040517fbaf3f0f700000000000000000000000000000000000000000000000000000000815260040160405180910390fd5b60008160030160146101000a81548160ff02191690836002811115610939577f4e487b7100000000000000000000000000000000000000000000000000000000600052602160045260246000fd5b02179055503481600101819055505050565b610953611475565b600160008381526020019081526020016000206040518060a00160405290816000820154815260200160018201548152602001600282015481526020016003820160009054906101000a900473ffffffffffffffffffffffffffffffffffffffff1673ffffffffffffffffffffffffffffffffffffffff1673ffffffffffffffffffffffffffffffffffffffff1681526020016003820160149054906101000a900460ff166002811115610a30577f4e487b7100000000000000000000000000000000000000000000000000000000600052602160045260246000fd5b6002811115610a68577f4e487b7100000000000000000000000000000000000000000000000000000000600052602160045260246000fd5b815250509050919050565b600060026000838152602001908152602001600020549050919050565b60008054906101000a900460ff1615610ade576040517f08c379a0000000000000000000000000000000000000000000000000000000008152600401610ad59061188f565b60405180910390fd5b610ae6610724565b73ffffffffffffffffffffffffffffffffffffffff163373ffffffffffffffffffffffffffffffffffffffff1614610b4a576040517f5fc483c500000000000000000000000000000000000000000000000000000000815260040160405180910390fd5b610b5381611354565b610b89576040517f4db0c48300000000000000000000000000000000000000000000000000000000815260040160405180910390fd5b600060016000838152602001908152602001600020905060006002811115610bda577f4e487b7100000000000000000000000000000000000000000000000000000000600052602160045260246000fd5b8160030160149054906101000a900460ff166002811115610c24577f4e487b7100000000000000000000000000000000000000000000000000000000600052602160045260246000fd5b14610c5b576040517fbaf3f0f700000000000000000000000000000000000000000000000000000000815260040160405180910390fd5b60008160030160009054906101000a900473ffffffffffffffffffffffffffffffffffffffff1673ffffffffffffffffffffffffffffffffffffffff168260010154604051610ca9906117e9565b60006040518083038185875af1925050503d8060008114610ce6576040519150601f19603f3d011682016040523d82523d6000602084013e610ceb565b606091505b5050905080610d2f576040517f08c379a0000000000000000000000000000000000000000000000000000000008152600401610d26906118af565b60405180910390fd5b60028260030160146101000a81548160ff02191690836002811115610d7d577f4e487b7100000000000000000000000000000000000000000000000000000000600052602160045260246000fd5b021790555060008260010181905550505050565b6000600354905090565b60008054906101000a900460ff16610de8576040517f08c379a0000000000000000000000000000000000000000000000000000000008152600401610ddf9061184f565b60405180910390fd5b610df0610724565b73ffffffffffffffffffffffffffffffffffffffff163373ffffffffffffffffffffffffffffffffffffffff1614610e54576040517f5fc483c500000000000000000000000000000000000000000000000000000000815260040160405180910390fd5b600460009054906101000a900473ffffffffffffffffffffffffffffffffffffffff1673ffffffffffffffffffffffffffffffffffffffff16ff5b610e97610724565b73ffffffffffffffffffffffffffffffffffffffff163373ffffffffffffffffffffffffffffffffffffffff1614610efb576040517f5fc483c500000000000000000000000000000000000000000000000000000000815260040160405180910390fd5b60008060006101000a81548160ff021916908315150217905550565b60008054906101000a900460ff1615610f65576040517f08c379a0000000000000000000000000000000000000000000000000000000008152600401610f5c9061188f565b60405180910390fd5b60008233604051602001610f7a9291906117bd565b604051602081830303815290604052805190602001209050610f9b816113c3565b15610fd2576040517fb0fc2d9700000000000000000000000000000000000000000000000000000000815260040160405180910390fd5b600060036000815480929190610fe7906119c4565b9190505590508160026000838152602001908152602001600020819055506040518060a001604052808281526020013481526020018481526020013373ffffffffffffffffffffffffffffffffffffffff16815260200160006002811115611078577f4e487b7100000000000000000000000000000000000000000000000000000000600052602160045260246000fd5b8152506001600084815260200190815260200160002060008201518160000155602082015181600101556040820151816002015560608201518160030160006101000a81548173ffffffffffffffffffffffffffffffffffffffff021916908373ffffffffffffffffffffffffffffffffffffffff16021790555060808201518160030160146101000a81548160ff02191690836002811115611144577f4e487b7100000000000000000000000000000000000000000000000000000000600052602160045260246000fd5b021790555090505050505050565b60008054906101000a900460ff1661119f576040517f08c379a00000000000000000000000000000000000000000000000000000000081526004016111969061184f565b60405180910390fd5b6111a7610724565b73ffffffffffffffffffffffffffffffffffffffff163373ffffffffffffffffffffffffffffffffffffffff161461120b576040517f5fc483c500000000000000000000000000000000000000000000000000000000815260040160405180910390fd5b6000600460009054906101000a900473ffffffffffffffffffffffffffffffffffffffff1673ffffffffffffffffffffffffffffffffffffffff1647604051611253906117e9565b60006040518083038185875af1925050503d8060008114611290576040519150601f19603f3d011682016040523d82523d6000602084013e611295565b606091505b50509050806112d9576040517f08c379a00000000000000000000000000000000000000000000000000000000081526004016112d09061186f565b60405180910390fd5b50565b6112e4610724565b73ffffffffffffffffffffffffffffffffffffffff163373ffffffffffffffffffffffffffffffffffffffff1614611348576040517f5fc483c500000000000000000000000000000000000000000000000000000000815260040160405180910390fd5b61135181611431565b50565b60008073ffffffffffffffffffffffffffffffffffffffff166001600084815260200190815260200160002060030160009054906101000a900473ffffffffffffffffffffffffffffffffffffffff1673ffffffffffffffffffffffffffffffffffffffff1614159050919050565b60003373ffffffffffffffffffffffffffffffffffffffff166001600084815260200190815260200160002060030160009054906101000a900473ffffffffffffffffffffffffffffffffffffffff1673ffffffffffffffffffffffffffffffffffffffff16149050919050565b80600460006101000a81548173ffffffffffffffffffffffffffffffffffffffff021916908373ffffffffffffffffffffffffffffffffffffffff16021790555050565b6040518060a00160405280600081526020016000815260200160008019168152602001600073ffffffffffffffffffffffffffffffffffffffff168152602001600060028111156114ef577f4e487b7100000000000000000000000000000000000000000000000000000000600052602160045260246000fd5b81525090565b60008135905061150481611b87565b92915050565b60008135905061151981611b9e565b92915050565b60008135905061152e81611bb5565b92915050565b60008135905061154381611bcc565b92915050565b60006020828403121561155b57600080fd5b6000611569848285016114f5565b91505092915050565b6000806040838503121561158557600080fd5b60006115938582860161150a565b92505060206115a48582860161151f565b9150509250929050565b6000602082840312156115c057600080fd5b60006115ce8482850161151f565b91505092915050565b6000602082840312156115e957600080fd5b60006115f784828501611534565b91505092915050565b61160981611921565b82525050565b61161881611921565b82525050565b61162f61162a82611921565b611a0d565b82525050565b61163e81611933565b82525050565b6116556116508261193f565b611a1f565b82525050565b6116648161196b565b82525050565b6116738161196b565b82525050565b611682816119b2565b82525050565b6000611695602183611910565b91506116a082611aa6565b604082019050919050565b60006116b8600f83611910565b91506116c382611af5565b602082019050919050565b60006116db600083611905565b91506116e682611b1e565b600082019050919050565b60006116fe601d83611910565b915061170982611b21565b602082019050919050565b6000611721601a83611910565b915061172c82611b4a565b602082019050919050565b60a08201600082015161174d600085018261179f565b506020820151611760602085018261179f565b506040820151611773604085018261165b565b5060608201516117866060850182611600565b5060808201516117996080850182611679565b50505050565b6117a8816119a8565b82525050565b6117b7816119a8565b82525050565b60006117c98285611644565b6010820191506117d9828461161e565b6014820191508190509392505050565b60006117f4826116ce565b9150819050919050565b6000602082019050611813600083018461160f565b92915050565b600060208201905061182e6000830184611635565b92915050565b6000602082019050611849600083018461166a565b92915050565b6000602082019050818103600083015261186881611688565b9050919050565b60006020820190508181036000830152611888816116ab565b9050919050565b600060208201905081810360008301526118a8816116f1565b9050919050565b600060208201905081810360008301526118c881611714565b9050919050565b600060a0820190506118e46000830184611737565b92915050565b60006020820190506118ff60008301846117ae565b92915050565b600081905092915050565b600082825260208201905092915050565b600061192c82611988565b9050919050565b60008115159050919050565b60007fffffffffffffffffffffffffffffffff0000000000000000000000000000000082169050919050565b6000819050919050565b600081905061198382611b73565b919050565b600073ffffffffffffffffffffffffffffffffffffffff82169050919050565b6000819050919050565b60006119bd82611975565b9050919050565b60006119cf826119a8565b91507fffffffffffffffffffffffffffffffffffffffffffffffffffffffffffffffff821415611a0257611a01611a3b565b5b600182019050919050565b6000611a1882611a29565b9050919050565b6000819050919050565b6000611a3482611a99565b9050919050565b7f4e487b7100000000000000000000000000000000000000000000000000000000600052601160045260246000fd5b7f4e487b7100000000000000000000000000000000000000000000000000000000600052602160045260246000fd5b60008160601b9050919050565b7f436f6e74726163742069732063757272656e746c79206e6f742073746f70706560008201527f6400000000000000000000000000000000000000000000000000000000000000602082015250565b7f5472616e73666572206661696c65640000000000000000000000000000000000600082015250565b50565b7f436f6e74726163742069732063757272656e746c792073746f70706564000000600082015250565b7f446561637469766174696f6e20726566756e64206661696c6564000000000000600082015250565b60038110611b8457611b83611a6a565b5b50565b611b9081611921565b8114611b9b57600080fd5b50565b611ba78161193f565b8114611bb257600080fd5b50565b611bbe8161196b565b8114611bc957600080fd5b50565b611bd5816119a8565b8114611be057600080fd5b5056fea26469706673582212208393a55b5f980759170614aa9e69bcd966946d8a70ffd7bebb3965703008adfa64736f6c63430008040033",
  "immutableReferences": {},
  "source": "// SPDX-License-Identifier: MIT\r\npragma solidity >=0.4.22 <0.9.0;\r\n\r\ncontract CourseMarketplace {\r\n    \r\n    // setup States*** Finite States\r\n    enum State{\r\n        Purchased,\r\n        Activated,\r\n        Deactivated \r\n    }\r\n\r\n    //grouping of related variables - almost same as object in javasciprt\r\n    struct Course {\r\n        uint id; //32\r\n        uint price; //32\r\n        bytes32 proof; //string //32\r\n        address owner; //owner of the course - user purcahsed then will be owner //20\r\n        State state; //1\r\n    }\r\n\r\n    bool public isStopped = false;\r\n\r\n    //storage - mapping of course hash to course data\r\n    mapping(bytes32 => Course) private ownedCourses;\r\n    //mapping of courseID to courseHash\r\n    mapping(uint => bytes32) private ownedCourseHash;\r\n\r\n    uint private totalOwnedCourses;\r\n\r\n    address payable private owner; //payable address\r\n\r\n    constructor(){ //executed during the deployment can do some initialization \r\n        setContractOwner(msg.sender);\r\n    }\r\n\r\n    //(3 slashes means error message)\r\n    /// You already own the course!\r\n    error CourseHasOwner();\r\n\r\n    /// Only owner has access to this function\r\n    error OnlyOwner();\r\n\r\n    /// Course is in an invalid state!\r\n    error InvalidState();\r\n\r\n    /// Course has not been created!\r\n    error CourseIsNotCreated();\r\n\r\n    /// Sender is not course owner\r\n    error SenderIsNoCourseOwner();\r\n\r\n    modifier onlyOwner(){\r\n        if(msg.sender != getContractOwner()){\r\n            revert OnlyOwner();\r\n        }\r\n        _;\r\n    }\r\n\r\n    modifier onlyWhenNotStopped(){\r\n        require(!isStopped, \"Contract is currently stopped\");\r\n        _;\r\n    }\r\n\r\n    modifier onlyWhenStopped(){\r\n        require(isStopped, \"Contract is currently not stopped\");\r\n        _;\r\n    }\r\n\r\n    //if you want to receive ether\r\n    receive() external payable {\r\n\r\n    }\r\n\r\n    //withdraw ether\r\n    function withdraw(uint amount) \r\n        external\r\n        onlyOwner\r\n    {\r\n        (bool success, ) = owner.call{value:amount}(\"\"); // send amount to owner\r\n        require(success, \"Transfer failed\");\r\n    }\r\n\r\n    //withdraw ether\r\n    function emergencyWithdraw() \r\n        external\r\n        onlyWhenStopped\r\n        onlyOwner\r\n    {\r\n        (bool success, ) = owner.call{value: address(this).balance}(\"\"); // send amount to owner\r\n        require(success, \"Transfer failed\");\r\n    }\r\n\r\n    function selfDestruct()\r\n        external\r\n        onlyWhenStopped\r\n        onlyOwner\r\n    {\r\n        selfdestruct(owner); //destroy smart contract and send the ether to owner\r\n    }\r\n\r\n    function stopContract() \r\n        external \r\n        onlyOwner\r\n    {\r\n        isStopped = true;\r\n    }\r\n\r\n    function resumeContract() \r\n        external \r\n        onlyOwner\r\n    {\r\n        isStopped = false;\r\n    }\r\n\r\n    function repurchaseCourse(bytes32 courseHash)\r\n        external\r\n        payable\r\n        onlyWhenNotStopped\r\n    {\r\n\r\n        if(!isCourseCreated(courseHash)){\r\n            revert CourseIsNotCreated();\r\n        }\r\n\r\n        if(!hasCourseOwnership(courseHash)){\r\n            revert SenderIsNoCourseOwner();\r\n        }\r\n\r\n        Course storage course = ownedCourses[courseHash];\r\n\r\n        if(course.state != State.Deactivated){\r\n            revert InvalidState();\r\n        }\r\n\r\n        course.state = State.Purchased;\r\n        course.price = msg.value;\r\n\r\n    }\r\n\r\n    function activateCourse (bytes32 courseHash)\r\n        external\r\n        onlyWhenNotStopped\r\n        onlyOwner\r\n    {\r\n\r\n        if(!isCourseCreated(courseHash)){\r\n            revert CourseIsNotCreated();\r\n        }\r\n\r\n        Course storage course = ownedCourses[courseHash]; //if use storage, can manupulate course data. memory is only for viewing / readying\r\n\r\n        if(course.state != State.Purchased){\r\n            revert InvalidState();\r\n        }\r\n\r\n        course.state = State.Activated;\r\n    }\r\n\r\n    function deactivateCourse (bytes32 courseHash)\r\n        external\r\n        onlyWhenNotStopped\r\n        onlyOwner\r\n    {\r\n\r\n        if(!isCourseCreated(courseHash)){\r\n            revert CourseIsNotCreated();\r\n        }\r\n\r\n        Course storage course = ownedCourses[courseHash]; //if use storage, can manupulate course data. memory is only for viewing / readying\r\n\r\n        if(course.state != State.Purchased){\r\n            revert InvalidState();\r\n        }\r\n\r\n        (bool success, ) = course.owner.call{value: course.price}(\"\"); //??? transfer the eth back to the owner\r\n        require(success, \"Deactivation refund failed\"); //must be successful\r\n        //send back eth\r\n\r\n        course.state = State.Deactivated;\r\n        course.price = 0;\r\n    }\r\n\r\n    function transferOwnership(address newOwner)\r\n        external\r\n        onlyOwner()\r\n    {\r\n        setContractOwner(newOwner);\r\n    }\r\n\r\n    function purchaseCourse (\r\n        bytes16 courseId, //hexadecimal\r\n        bytes32 proof //from frontend\r\n    ) \r\n        external \r\n        payable\r\n        onlyWhenNotStopped\r\n    {\r\n        //e.g.\r\n        //courseID = 10, hex will be 0x00000000000000000000000000003130\r\n        //msg.sender \r\n\r\n        //construct course hash, hash of the course to store in the mapping\r\n        //course hash map to actual course data\r\n        bytes32 courseHash = keccak256(abi.encodePacked(courseId, msg.sender)); //abi is global function same with keccak, want to hash multiple values for encodePacked (hash id and sender together)\r\n\r\n        if(hasCourseOwnership(courseHash)){\r\n            revert CourseHasOwner();\r\n        }\r\n\r\n        uint id = totalOwnedCourses++;\r\n        ownedCourseHash[id] = courseHash; //mapping id to course hash\r\n        ownedCourses[courseHash] = Course({\r\n            id: id,\r\n            price: msg.value,\r\n            proof: proof,\r\n            owner: msg.sender,\r\n            state: State.Purchased\r\n        });\r\n    }\r\n\r\n    function getCourseCount() \r\n        external\r\n        view\r\n        returns(uint)   \r\n    {\r\n        return totalOwnedCourses;\r\n    }\r\n\r\n    function getCourseHashAtIndex(uint index)\r\n        external\r\n        view\r\n        returns (bytes32)\r\n    {\r\n        return ownedCourseHash[index];\r\n    }\r\n\r\n    function getCourseByHash(bytes32 courseHash)\r\n        external\r\n        view\r\n        returns (Course memory)\r\n    { //when its a struck or array, its in memory\r\n        return ownedCourses[courseHash];\r\n    }\r\n\r\n    function getContractOwner()\r\n        public\r\n        view\r\n        returns (address)\r\n    {\r\n        return owner;\r\n    }\r\n\r\n    function setContractOwner(address newOwner)\r\n        private\r\n    {\r\n        owner=payable(newOwner);\r\n    }\r\n\r\n    function isCourseCreated(bytes32 courseHash)\r\n        private\r\n        view\r\n        returns (bool)\r\n    {\r\n        return ownedCourses[courseHash].owner != 0x0000000000000000000000000000000000000000;\r\n    }\r\n\r\n    function hasCourseOwnership (bytes32 courseHash)\r\n        private\r\n        view\r\n        returns (bool)\r\n    {\r\n        return ownedCourses[courseHash].owner == msg.sender; //if same as user - means they already have this course so cannot repurchase\r\n   }\r\n\r\n\r\n\r\n}",
  "sourcePath": "C:\\1. Work\\10. Crypto Money Making Machine\\0. Learning\\BlockchainNodeJS\\marketplace-eth\\contracts\\CourseMarketplace.sol",
  "compiler": {
    "name": "solc",
    "version": "0.8.4+commit.c7e474f2.Emscripten.clang"
  },
  "schemaVersion": "3.4.3",
  "updatedAt": "2021-11-06T12:18:22.079Z",
  "networkType": "ethereum",
  "devdoc": {
    "kind": "dev",
    "methods": {},
    "version": 1
  },
  "userdoc": {
    "errors": {
      "CourseHasOwner()": [
        {
          "notice": "You already own the course!"
        }
      ],
      "CourseIsNotCreated()": [
        {
          "notice": "Course has not been created!"
        }
      ],
      "InvalidState()": [
        {
          "notice": "Course is in an invalid state!"
        }
      ],
      "OnlyOwner()": [
        {
          "notice": "Only owner has access to this function"
        }
      ],
      "SenderIsNoCourseOwner()": [
        {
          "notice": "Sender is not course owner"
        }
      ]
    },
    "kind": "user",
    "methods": {},
    "version": 1
  }
}